:0C16250003020100070605040B0A090877
:101464004200000000420013000045001E4555677D
:0E147400102141000B0341000A0041000C0052
:0A128E001207FC1216907F017E008B
:10129800E4FDFCC3ED9FEC9E5017E4FBFA00000B45
:1012A800BB00010ABA03F6BBE8F30DBD00010C80D0
:0112B800E253
:0112B9002212
:06158200D2937F0A7E00F7
:0E158800EF1F70011E144E6004000080F3225D
:1014F600E4FF9000AEE0FEEFC39E500EED120049F1
:0A1506000F740129F9E43AFA80E8B5
:0115100022B8
:0B0D0F00900095EBF0A3EAF0A3E9F0E0
:100D1A00E4FF90009BE0FEEFC39E5035900098E000
:100D2A00FBA3E0FAA3E0F9120003FE900095E0FBB2
:100D3A00A3E0FAA3E0F9EE1200490F900096E475D9
:100D4A00F0011200D2900099E475F0011200D280ED
:010D5A00C1D7
:010D5B002275
:10148300A2AF9200C2AF75C7AA75C755E4F59F75A1
:0C149300C7AA75C755759F80A20092AFD4
:01149F00222A
:100ECE00E58730E43BAF84AD85EF25E0FFE433FEEC
:100EDE00ED54017C002FFFEC3EFE74F12FFF74FFEA
:100EEE003EFEEF5401FDEEC313EF1375C7AA75C78F
:100EFE0055F58475C7AA75C755AF058F855387EF0E
:010F0E0022C0
:0415AA00AF027D010E
:0E15AE00AE05A806EF088002C313D8FC132276
:1015CD00AE05A8067401088002C333D8FC4FFF2274
:1015BC00AE05A8067401088002C333D8FCF45FFFA3
:0115CC0022FC
:0E160B00AE07EB60030215CDAF061215BC2230
:10093400AC07AA05EC54F02470602F24E060522424
:100944003070741215AAE433FBEC540FFDAFB112EE
:10095400160B8FB1AF02E4FD1215AEE433FBEC5479
:100964000FFDAFB212160B8FB2221215AAE433FB9D
:10097400EC540FFDAFB312160B8FB3AF02E4FD12AC
:1009840015AEE433FBEC540FFDAFB412160B8FB469
:10099400221215AAE433FBEC540FFDAFAC12160B74
:1009A4008FACAF02E4FD1215AEE433FBEC540FFD43
:0809B400AFAD12160B8FAD224E
:1006F800EF54F02470605424E07002E199243060D3
:1007080002E1A2EF540FB408004002E1A290071BD7
:1007180025E073E12BE130E135E13AE13FE144E1E5
:1007280049E14EA201928022A201928122A2019265
:100738008222A201928322A201928422A20192859E
:1007480022A201928622A201928722EF540FB408B6
:1007580000504790076125E073E171E176E17BE1A4
:1007680080E185E18AE18FE194A201929022A201C1
:10077800929122A201929222A201929322A2019224
:100788009422A201929522A201929622A201929706
:0B07980022EF540F7004A20192B02267
:1012BA00EF54F02470601024E0601424307019EFA9
:1012CA00540FFDAF80800EEF540FFDAF908006EFF4
:0A12DA00540FFDAFB00215AEC322A1
:0A166800EF540F42E844F052E8226C
:0B16310030020443E1012253E1FE22DD
:05168300C2EFD2EE22CF
:1013E600121668AF058F9512168330EFFDE4F5955A
:1013F600AFC3EF75F010A4FFAEF0ADC2EF4DFF2204
:050C1A0090009FEDF0C9
:100C1F00E49000A2F09000A0E0FF121668A3E0F5A8
:100C2F0095E4A3F090009FE0FF9000A2E0C39F50D7
:100C3F002912168330EFFDAFC3EF75F010A4FFAD8F
:100C4F00C2EF4DFFE5F08FF01200E89000A2E00434
:0D0C5F00F0740229F9E43AFA80CAE4F59530
:010C6C002265
:10080000E490006AF0A3F07B017A00796C9000A07C
:100810007408F0A37402F07D05120C1A7F02EF2514
:10082000E0246CF582E43400F583E0FCA3E0FD9065
:10083000006BE02DF090006AE03CF00FEFB405DEB5
:1008400090006AE0FEA3E0FF7C007D0312007D9033
:10085000006AEEF0A3EFF0900000E0FEA3E0FFE4FA
:10086000FCFD900066120224E4FF7E10FDFC900067
:1008700066E0F8A3E0F9A3E0FAA3E0FB120107C0E9
:1008800006C00790006AE0FEA3E0FBAA06E4F9F8C0
:10089000D007D006120192900066120224900066E2
:0708A000A3A3E0FEA3E0FFAB
:0108A700222E
:0F15ED00D293D294121584C294121584C2932201
:09167200121584121582D2942293
:100D5C004408FF120D6EE94408FF120D6EA3E04427
:020D6C0008FF7E
:020D6E00AD07CF
:100D7000E4FBFA121584ED30E704D2948002C294A9
:100D8000ED25E0FD121582C2930BBB00010AEB6456
:100D9000084A70DF7F147E00121588D2937F197E77
:080DA00000121588C293C294F1
:010DA8002228
:1015DD00120003FFC454F0FEEFC4540F4E02004935
:090BBC007F887E131215887F0367
:020BC500AC077B
:100BC700EC54F09000C1F0EC540FA3F07B017A00D5
:100BD70079C21215DD9000C1E044049000C0F09086
:100BE70000C2E04404F91215ED7F4E120D6E90001D
:100BF700C0120D6AA3E0120D5C121672EC6401605C
:100C070004ECB402067FD07E0780047F647E001266
:020C170015883E
:010C190022B8
:100E8900EF54F0FCEF540F9000C4F07B017A007925
:100E9900C41215DD0C9000C4E004F0EC4405900088
:100EA900C3F0A3E04405F91215ED7F4E120D6E90C3
:100EB90000C3120D6AAF04EF120D5C1216727F6443
:050EC9007E0002158807
:100F4F001215ED7F4E120D6EE4FF120D6E1216721A
:100F5F001215847F03120BC5120BBC120BBC7F88BA
:100F6F007E131215887F02120BC57F28120BC57FC7
:0E0F7F0006120BC57F0C120BC57F01020BC5BD
:0307FC00D2842282
:03168D00C28422F2
:03169000D28322E0
:03169300C28322ED
:1014DA0043F30253F3FE43F40853F37F43F31053E9
:0C14EA00F3DF53F3F753F3FB43F340220E
:10135A00E0FBA3E0FAA3E0F98D828C8312001CFF64
:10136A00E4FE8FF5E5F430E7FB53F47FAEF553F472
:03137A007FAF063C
:01137D00224D
:0B10A90090007CEBF0A3EAF0A3E9F05C
:1010B400EF4420FF12168D12136AE4FDFC90007FAA
:1010C400E0FFC3ED9F7480F86C98500D90007C1283
:0C10D400135A0DBD00010C80E40207FC63
:03156D00E4F0FFA8
:10157000E4FE12168D12136AE4FF12136AAE07021C
:0215800007FC66
:0316960002136AD2
:0E117D009000B4EBF0A3EAF0A3E9F0A3EDF0CC
:10118B00E4FDFC9000B7E0FFC3ED9F7480F86C9812
:0F119B00500D9000B412135A0DBD00010C80E4EA
:0111AA002222
:0E0F0F009000B8EBF0A3EAF0A3E9F0A3EDF038
:100F1D00E4FDFC9000BBE0FFC3ED9F7480F86C987E
:100F2D00501FE4FF12136A9000B8E0FBA3E0FAA390
:100F3D00E0F98D828C83EF12005B0DBD00010C80FA
:010F4D00D2D1
:010F4E002280
:1014A00090007612156DEFF0E04402F07B017A00B7
:0D14B000797690007F7401F0E4FF0210A92E
:1014BD009000C512156DEFF0E054FDF07B017A0040
:0D14CD0079C590007F7401F0E4FF0210A9C2
:0211AB00AD078E
:1011AD00E4900076F07F06121570EFF0E054B8F081
:1011BD00E0FFAE05EE25E0FEEF4EF07B017A007903
:0C11CD007690007F7401F07F060210A9EC
:02103900AD0701
:10103B00E4900076F07F06121570EFF0E054D7F0D5
:10104B00EDB40106E04408F0800BEDB4020790000C
:10105B0076E04420F07B017A00797690007F740172
:06106B00F07F060210A94F
:10152B00900076EFF07B017A00797690007F740162
:06153B00F07F050210A97B
:0B163C0090007F7405F07F100210A9E1
:1009BC00900076EDF0E0D3942040037420F0EF1417
:1009CC00602014602D14603A1460471460542405A0
:1009DC0070617B017A00797690007F7401F07F1151
:1009EC00804E7B017A00797690007F7401F07F1243
:1009FC00803E7B017A00797690007F7401F07F1342
:100A0C00802E7B017A00797690007F7401F07F1440
:100A1C00801E7B017A00797690007F7401F07F153F
:100A2C00800E7B017A00797690007F7401F07F163E
:040A3C001210A922C9
:0D045600900076EBF0A3EAF0A3E9F0AD070B
:10046300E4A3F07F02121570EFF0ED146035146011
:100473005114606D147002A103147002A1222405AB
:100483006002A13F900076E0FBA3E0FAA3E0F990BD
:10049300007F7405F07F0A1210A9900079E04401EF
:1004A300F0A13F900076E0FBA3E0FAA3E0F990000F
:1004B3007F7405F07F0B1210A9900079E04402F0DD
:1004C300807A900076E0FBA3E0FAA3E0F990007F46
:1004D3007401F07F0C1210A9900079E04404F080BD
:1004E3005B900076E0FBA3E0FAA3E0F990007F7451
:1004F30001F07F0D1210A9900079E04408F0803CD0
:10050300900076E0FBA3E0FAA3E0F990007F74018A
:10051300F07F0E1210A9900079E04410F0801D9036
:100523000076E0FBA3E0FAA3E0F990007F7401F00A
:100533007F0F1210A9900079E04420F07B017A002C
:0D054300797990007F7401F07F020210A909
:02114B00AD07EE
:10114D007F021215709000C6EFF0E0FFAE05A80605
:10115D007401088002C333D8FCF45F9000C6F07BA5
:10116D00017A0079C690007F7401F07F020210A908
:02107100AC07CA
:10107300E4FF121570900076EFF0E054F3F0E0FF18
:10108300AE05EE25E025E0FEAD04ED33333354F831
:101093004EFEEF4EF07B017A00797690007F74016B
:0610A300F0E4FF0210A9B9
:10151100900076EFF0E024FEF07B017A007976907E
:0A152100007F7401F07F030210A99F
:0B16470012168D7FE11216960207FCC0
:0B16520012168D7FE21216960207FCB4
:0B165D007FFF12168D12136A0207FCBB
:06133500121647121652C9
:10133B00E4900076F012165DEFF0E04440F07B0194
:0F134B007A00797690007F7401F07F070210A975
:10142600E4900076F012165DEFF0E04420F07B01C8
:0F1436007A00797690007F7401F07F070210A989
:10144500E490007AF012165DEFF0E04410F07B01B5
:0F1455007A00797A90007F7401F07F070210A966
:10130D00121570EFFB7A00AF057E007401A8070877
:10131D008005C333CE33CED8F9FFEE5AFEEF5B4EC8
:08132D0060037F01227F002212
:020E4100AC07FC
:100E4300E49000C7F0121570EFF0EB6010E0FFA81C
:100E5300057401088002C333D8FC4F80149000C787
:100E6300E0FFAE05A8067401088002C333D8FCF482
:100E73005F9000C7F0AF047B017A0079C790007FD1
:060E83007401F00210A949
:1013C500E49000C8F012168D7F601216967B017AA4
:1013D5000079C87D01120F0F1207FC9000C8E0FFCD
:0113E50022E5
:1013A200E49000C9F0FF121570EFF0E04401F07B09
:1013B200017A0079C990007F7401F0E4FF1210A94C
:0313C20002169080
:10140600E4900076F0FF121570EFF0E054FEF07BEA
:10141600017A00797690007F7401F0E4FF0210A94A
:0211D900AD0760
:1011DB007F1D121570900076EFF0EDB40106E04420
:1011EB0004F08007900076E054FBF07B017A0079E5
:0C11FB007690007F7401F07F1D0210A9A7
:020C6D00AC07D2
:100C6F007F1C121570900076EFF0ECD394054002C4
:100C7F007C05ED6013900076E0FFA80474010880F6
:100C8F0002C333D8FC4F8014900076E0FFAE04A867
:100C9F00067401088002C333D8FCF45F900076F02D
:100CAF007B017A00797690007F7401F07F1C02102F
:010CBF00A98B
:020CC000AC077F
:100CC200ECD3940540027C057F011215709000CA96
:100CD200EFF0ED6010E0FFA8047401088002C33356
:100CE200D8FC4F80149000CAE0FFAE04A80674013D
:100CF200088002C333D8FCF45F9000CAF07B017A0B
:0D0D02000079CA90007F7401F0FF0210A973
:0212E400AD0754
:1012E6007F01121570900076EFF0ED6005743FF007
:1012F6008005E4900076F07B017A00797690007F95
:071306007401F0FF0210A9C1
:02120700AD0731
:101209007F1D121570900076EFF0ED6006E0440244
:10121900F08007900076E054FDF07B017A00797642
:0B12290090007F7401F07F1D0210A9EF
:02123400AD0704
:101236007F1D1215709000CBEFF0ED6006E04401C3
:10124600F080079000CBE054FEF07B017A0079CB6A
:0B12560090007F7401F07F1D0210A9C2
:02126100AD07D7
:101263007F04121570900076EFF0E0540FF0E0FF6A
:10127300AE05EEC454F0FEEF4EF07B017A007976B2
:0B12830090007F7401F07F040210A9AE
:02137E00AD07B9
:101380007F04121570900076EFF0E054F0F0E04D1D
:10139000F07B017A00797690007F7401F07F04027F
:0213A00010A992
:100A400090008CEEF0A3EFF0A3EBF0A3EAF0A3E9A3
:010A5000F0B5
:100A5100E4900093F0A3F0900091E0FEA3E0FFA3E7
:100A6100E0FCA3E0FDC39FEC9E5057ED75F008A498
:100A7100FD7E0074FFA805088005C333CE33CED8B0
:100A8100F9FF90008CE05EFEA3E05FA805088005F9
:100A9100CEC313CE13D8F9FF90008EE0FBA3E0FA8A
:100AA100A3E0F9900093E0FCA3E0F5828C83EF12C0
:100AB100005B900094E004F0709D900093E004F0DE
:020AC10080951E
:010AC3002210
:0807A3007B017A0079437D20FF
:0E07AB00900076EBF0A3EAF0A3E9F0A3EDF0E6
:1007B9001216937FA012168D12136AE4FDFC9000A5
:1007C90079E0FFC3ED9F7480F86C98500D90007626
:1007D90012135A0DBD00010C80E412128E121693E9
:1007E90012165DEF30E4091214451216477F0122F3
:0207F9007F007F
:0107FB0022DB
:050FCA009000CCEDF0E9
:100FCF001216937FB012168D12136AE4FDFC900077
:100FDF00CCE0FFC3ED9F7480F86C98500E120003A5
:100FEF00FF12136A0DBD00010C80E312128E021660
:010FFF00935E
:10111600EFD3940540027F05EF44A8FF12168D1207
:10112600136AE4FDFC9000B3E0FFC3ED9F7480F802
:101136006C98500E120003FF12136A0DBD00010CCD
:0511460080E30207FC3C
:051688007F090215704E
:0E15FC007F17121570EF20E0037F01227F00A1
:01160A0022BD
:0E0DA9009000BCEBF0A3EAF0A3E9F0A3EDF09C
:100DB7007F6112168D12136AE4FDFC9000BFE0FFFD
:100DC700C3ED9F7480F86C98501FE4FF12136A906C
:100DD70000BCE0FBA3E0FAA3E0F98D828C83EF125D
:0F0DE700005B0DBD00010C80D21207FC02133B14
:100AC4001216931214BD7F031211ABE4FF121039F6
:100AD4007F0212152BE4FDFF1210717F0512151110
:100AE400121335121426121445121406E4FF1211BF
:100AF400D9E4FF121207E4FF121234E4FF12126168
:100B04007F0312137EE49000CDF09000CDE0FFC38C
:100B140094055029E4FD1209BC9000CDE0FF1211A8
:100B24004B9000CDE0FFE4FD120C6D9000CDE0FF92
:100B34007D01120CC09000CDE004F080CD0216902F
:0C1619001214A0121335121426021445FE
:100DF600A2AF9208E4FFC2AF75C7AA75C755439F55
:100E06000175AF04F5A7F5A6EFC3940C501FEF903C
:100E1600162593F5A675C7AA75C75543A401E5AE71
:100E26001200490F740129F9E43AFA80DB75C7AA62
:0A0E360075C755539FFEA20892AF46
:010E4000228F
:101541008FAFECF5A7EDF5A675C7AA75C75543A4EE
:0515510001AEAEAF0683
:011556002272
:101557008FAFECF5A7EDF5A6AF038FAE75C7AA75EC
:06156700C75543A4012258
:10159600A2AF9203C2AF75C7AA75C75543AA40A2A8
:0315A6000392AFFE
:0115A900221F
:100B4400A2AF9204E4C2AF75C7AA75C755439F010B
:100B54007D04FC7FC0121541EF54F064F0703075D1
:100B6400C7AA75C75543A5047B0F7FE112155775B6
:100B7400C7AA75C75553A5FBE59F20E6FB75C7AA11
:100B840075C755759F0075C7AA75C755439F80756E
:100B9400C7AA75C755539FFE75C7AA75C75543AAFB
:100BA40007121596AFAA74FF60FA75C7AA75C755E0
:070BB40043AA80A20492AFE6
:010BBB002217
:04167B008F828E8349
:03167F00E493FFF2
:011682002245
:0B063600900082EBF0A3EAF0A3E9F0D3
:10064100C205A3E4F0A3F0A3F0A3F0A3F0A3F0A3E9
:10065100F0A2AF9205C2AF900082E0FBA3E0FAA343
:10066100E0F94A600FA3EBF0A3EAF0A3E9F09000F0
:1006710063EB800E900063E0F9A3E0FAA3E0900041
:1006810085C9F0A3EAF0A3E9F0ED4C600AAF05904B
:100691000013ECF0A3EFF09000887437F0A3E4F0BE
:1006A100A3F0A3F0900013E0FEA3E0FF90008AE026
:1006B100FCA3E0FDC39FEC9E5038900089E02DFF24
:1006C100900088E03CFE12167B900085E0FBA3E0E1
:1006D100FAA3E0F9EF12004990008BE004F07006F4
:1006E10090008AE004F0900086E475F0011200D2D7
:0606F10080B2A20592AFE9
:0106F70022E0
:10100000AB07AA06ED75F080A42BFBE5F03AFAEBEE
:10101000F5A6AE02EEF5A775AEFF75C7AA75C75562
:10102000439F0175C7AA75C75543A50175AF2275C2
:08103000C7AA75C75543A401CE
:011038002295
:10023000C206900063E0F9A3E0FAA3E09000A3C92E
:10024000F0A3EAF0A3E9F0900013E0FCA3E0FDAE18
:10025000047807CEC313CE13D8F9F9E49000A6F0C2
:10026000A3F0A3F0A3F0A2AF9206C2AFED4C7002D0
:100270006143099000A67437F0A3E4F0A3F0A3F063
:10028000E9FF9000A8E0FCA3E0FDC39FEC940050C0
:100290001B9000A6E0FEA3E0FF1210009000A9E072
:1002A00004F070DC9000A8E004F080D475C7AA7553
:1002B000C755439F0175C7AA75C75543A50175AFBB
:1002C00021E49000A8F0A3F0900013E0FEA3E0FF6B
:1002D0009000A8E0FCA3E0FDC39FEC9E504390007B
:1002E000A6E0FEA3E02DF5A6EEF5A79000A3E0FBA7
:1002F000A3E0FAA3E0F9120003F5AE75C7AA75C72B
:100300005543A4011215969000A9E004F0700690E0
:1003100000A8E004F09000A4E475F0011200D2807F
:10032000A775C7AA75C75553A5FE75C7AA75C75542
:10033000539FFE7B007A007900E4FDFC120636A292
:030340000692AF73
:010343002297
:100F8D0053B1EF43B21053B1F743B20853B3FE431D
:100F9D00B40153B1FE43B20143B10253B2FD43B3A9
:100FAD000253B4FD43B30453B4FB53B3F743B40836
:0D0FBD0043B31053B4EF43B38053B47F220D
:1010E0007B017A007976120DF6E4FF747C2FF5828D
:1010F000E43400F583E0FE74762FF582E43400F5E5
:1011000083E06EFE740D2FF582E43400F583EEF07B
:051110000FEFB406D64C
:0111150022B7
:1003440020910990000AE004F03091FD90000AE049
:10035400FF7402C39F5002E4F090000AE0706CA2A4
:1003640094FF33900002CFF0A3EFF0900008E0FE7A
:10037400A3E0FFC39432EE94005002D293EF6432B0
:100384004E7037C293900002E0FEA3E0FF4E70105F
:1003940030970890004A74AEF08005E490004AF06B
:1003A400EF64014E700C90004A309703F0800374A0
:1003B400AEF01207A390000BEFF0C3900009E09495
:1003C40064900008E09400406C806690000AE06449
:1003D40001702DC29390004A74AEF0900008E07052
:1003E40004A3E0643270081207A390000BEFF0C37B
:1003F400900009E09464900008E094004037803154
:1004040090000AE06402702DD29390004AF09000AC
:1004140008E07004A3E0643270081207A390000B94
:10042400EFF0C3900009E09464900008E094004069
:1004340004E4F0A3F0209219C29390004A741EF0D1
:100444001207A390000BEFF07FE87E03121298804E
:02045400E422A0
:10055000120ECE120F8D1210E01214DA1207FC12D6
:1005600016907F057E0012129812169312168D12A5
:1005700016191214067F011212E4E4FF121207E4A6
:10058000FF1211D9E4FDFF1210717F031211AB7F2E
:10059000021210397F0A12152B7F05121511E4FD86
:1005A000FF120C6DE4FD7F01120C6DE4FD7F021261
:1005B0000C6DE4FD7F03120C6DE4FD7F04120C6DE5
:1005C000E4FD7F05120C6D7D20E4FF1209BC7F0461
:1005D0001212617F0A12137E7B017A00791E1216B5
:1005E0003C7B017A00791EE4FF12045612169090AB
:1005F000004374FEF0E490001DF090001DE0FF2425
:100600000DF582E43400F583E0FE74442FF582E4B6
:100610003400F583EEF090001DE004F0E0B406DA5B
:10062000120344900009E004F07006900008E00412
:06063000F012129480EAB2
:030000000208A84B
:0C08A800787FE4F6D8FD7581210208EF8E
:10000300BB010689828A83E0225002E722BBFE02FB
:09001300E32289828A83E493222E
:10001C00BB010CE58229F582E5833AF583E0225099
:10002C0006E92582F8E622BBFE06E92582F8E222E3
:0D003C00E58229F582E5833AF583E49322FD
:10004900BB010689828A83F0225002F722BBFE0196
:02005900F32290
:10005B00F8BB010DE58229F582E5833AF583E8F0DB
:10006B00225006E92582C8F622BBFE05E92582C887
:02007B00F2226F
:10007D00BC000BBE0029EF8DF084FFADF022E4CC67
:10008D00F875F008EF2FFFEE33FEEC33FCEE9DEC30
:10009D00984005FCEE9DFE0FD5F0E9E4CEFD22ED76
:1000AD00F8F5F0EE8420D21CFEADF075F008EF2FC0
:1000BD00FFED33FD4007985006D5F0F222C398FDB1
:0500CD000FD5F0EA224E
:1000D200C5F0F8A3E028F0C5F0F8E58215827002B9
:0600E2001583E038F02256
:1000E800BB010A89828A83F0E5F0A3F0225006F763
:0F00F80009A7F01922BBFE06F3E5F009F3192260
:10010700E88FF0A4CC8BF0A42CFCE98EF0A42CFC97
:100117008AF0EDA42CFCEA8EF0A4CDA8F08BF0A415
:100127002DCC3825F0FDE98FF0A42CCD35F0FCEB74
:100137008EF0A4FEA9F0EB8FF0A4CFC5F02ECD3939
:0F014700FEE43CFCEAA42DCE35F0FDE43CFC22A6
:1001560075F008758200EF2FFFEE33FECD33CDCC60
:1001660033CCC58233C5829BED9AEC99E5829840E3
:100176000CF582EE9BFEED9AFDEC99FC0FD5F0D6C0
:10018600E4CEFBE4CDFAE4CCF9A88222B800C1B9EA
:100196000059BA002DEC8BF084CFCECDFCE5F0CB28
:1001A600F97818EF2FFFEE33FEED33FDEC33FCEB61
:1001B60033FB10D703994004EB99FB0FD8E5E4F91C
:1001C600FA227818EF2FFFEE33FEED33FDEC33FC09
:1001D600C933C910D7059BE99A4007EC9BFCE99AFD
:1001E600F90FD8E0E4C9FAE4CCFB2275F010EF2F42
:1001F600FFEE33FEED33FDCC33CCC833C810D70742
:100206009BEC9AE899400AED9BFDEC9AFCE899F87C
:0E0216000FD5F0DAE4CDFBE4CCFAE4C8F9220F
:0C022400ECF0A3EDF0A3EEF0A3EFF0224D
:1008B400020550E493A3F8E493A34003F68001F205
:1008C40008DFF48029E493A3F85407240CC8C33345
:1008D400C4540F4420C8834004F456800146F6DF14
:1008E400E4800B0102040810204080901464E47E2C
:1008F400019360BCA3FF543F30E509541FFEE49309
:10090400A360010ECF54C025E060A840B8E493A3CF
:10091400FAE493A3F8E493A3C8C582C8CAC583CAFA
:10092400F0A3C8C582C8CAC583CADFE9DEE780BEB2
:011482000069
:00000001FF
