:0C17180003020100070605040B0A090883
:101607004200000000420013000045001E455567D8
:0616170010214100080053
:09138A007FE87E03121393D29256
:10139300E4FDFCC3ED9FEC9E5017E4FBFA00000B49
:1013A300BB00010ABA03F6BBE8F30DBD00010C80D4
:0113B300E257
:0113B4002216
:06167500D2937F0A7E0003
:0E167B00EF1F70011E144E6004000080F32269
:1015D200E4FF9000A2E0FEEFC39E500EED12004920
:0A15E2000F740129F9E43AFA80E8D9
:0115EC0022DC
:0B0E0F00900090EBF0A3EAF0A3E9F0E4
:100E1A00E4FF900096E0FEEFC39E5035900093E009
:100E2A00FBA3E0FAA3E0F9120003FE900090E0FBB6
:100E3A00A3E0FAA3E0F9EE1200490F900091E475DD
:100E4A00F0011200D2900094E475F0011200D280F1
:010E5A00C1D6
:010E5B002274
:10155F00A2AF9202C2AF75C7AA75C755E4F59F75C2
:0C156F00C7AA75C755759F80A20292AFF5
:01157B00224D
:10100000E58730E43BAF84AD85EF25E0FFE433FEB8
:10101000ED54017C002FFFEC3EFE74F12FFF74FFB6
:101020003EFEEF5401FDEEC313EF1375C7AA75C75B
:1010300055F58475C7AA75C755AF058F855387EFDA
:01104000228D
:04169D00AF027D011A
:0E16A100AE05A806EF088002C313D8FC132282
:1016C000AE05A8067401088002C333D8FC4FFF2280
:1016AF00AE05A8067401088002C333D8FCF45FFFAF
:0116BF002208
:0E16FE00AE07EB60030216C0AF061216AF2255
:1009DF00AC07AA05EC54F02470602F24E060522479
:1009EF0030707412169DE433FBEC540FFDAFB1124F
:1009FF0016FE8FB1AF02E4FD1216A1E433FBEC54E7
:100A0F000FFDAFB21216FE8FB22212169DE433FB0A
:100A1F00EC540FFDAFB31216FE8FB3AF02E4FD120D
:100A2F0016A1E433FBEC540FFDAFB41216FE8FB4D6
:100A3F002212169DE433FBEC540FFDAFAC1216FEE1
:100A4F008FACAF02E4FD1216A1E433FBEC540FFDA3
:080A5F00AFAD1216FE8FAD22AF
:10080000EF54F02470605424E0700201A1243060A1
:100810000201AAEF540FB40800400201AA90082375
:1008200025E07301330138013D01420147014C01CC
:10083000510156A203928022A203928122A2039226
:100840008222A203928322A203928422A20392858F
:1008500022A203928622A203928722EF540FB408A9
:1008600000504790086925E0730179017E018301FA
:1008700088018D01920197019CA203929022A2030C
:10088000929122A203929222A203929322A2039215
:100890009422A203929522A203929622A2039297F7
:0B08A00022EF540F7004A20392B0225C
:1013B500EF54F02470601024E0601424307019EFAD
:1013C500540FFDAF80800EEF540FFDAF908006EFF8
:0A13D500540FFDAFB00216A1C322B1
:0A175B00EF540F42E844F052E82278
:0B17240030040443E1012253E1FE22E7
:05177C00C2EFD2EE22D5
:1014E10012175BAF058F9512177C30EFFDE4F59570
:1014F100AFC3EF75F010A4FFAEF0ADC2EF4DFF2208
:050D1A0090009AEDF0CD
:100D1F00E490009DF090009BE0FF12175BA3E0F5BD
:100D2F0095E4A3F090009AE0FF90009DE0C39F50E0
:100D3F002912177C30EFFDAFC3EF75F010A4FFAD94
:100D4F00C2EF4DFFE5F08FF01200E890009DE00438
:0D0D5F00F0740229F9E43AFA80CAE4F5952F
:010D6C002264
:1008AB00E490007BF0A3F07B017A00797D90009BB4
:1008BB007408F0A37402F07D05120D1A7F02EF2568
:1008CB00E0247DF582E43400F583E0FCA3E0FD90A9
:1008DB00007CE02DF090007BE03CF00FEFB405DEE8
:1008EB0090007BE0FEA3E0FF7C007D0312007D9077
:1008FB00007BEEF0A3EFF0900000E0FEA3E0FFE43E
:10090B00FCFD900077120235E4FF7E10FDFC900099
:10091B0077E0F8A3E0F9A3E0FAA3E0FB120107C02C
:10092B0006C00790007BE0FEA3E0FBAA06E4F9F803
:10093B00D007D00612019290007712023590007703
:07094B00A3A3E0FEA3E0FFFF
:010952002282
:0F16E000D293D294121677C294121677C2932225
:09176500121677121675D29422B7
:100E5C004408FF120E6EE94408FF120E6EA3E04424
:020E6C0008FF7D
:020E6E00AD07CE
:100E7000E4FBFA121677ED30E704D2948002C294B4
:100E8000ED25E0FD121675C2930BBB00010AEB6461
:100E9000084A70DF7F147E0012167BD2937F197E82
:080EA0000012167BC293C294FC
:010EA8002227
:1016D000120003FFC454F0FEEFC4540F4E02004941
:090C67007F887E1312167B7F03C7
:020C7000AC07CF
:100C7200EC54F09000B5F0EC540FA3F07B017A0035
:100C820079B61216D09000B5E044049000B4F0900A
:100C920000B6E04404F91216E07F4E120E6E900088
:100CA200B4120E6AA3E0120E5C121765EC640160C6
:100CB20004ECB402067FD07E0780047F647E0012BB
:020CC200167B9F
:010CC400220D
:100F8800EF54F0FCEF540F9000B8F07B017A007931
:100F9800B81216D00C9000B8E004F0EC44059000AC
:100FA800B7F0A3E04405F91216E07F4E120E6E90DA
:100FB80000B7120E6AAF04EF120E5C1217657F6459
:050FC8007E0002167B13
:101081001216E07F4E120E6EE4FF120E6E121765FD
:101091001216777F03120C70120C67120C677F888F
:1010A1007E1312167B7F02120C707F28120C707F48
:0E10B10006120C707F0C120C707F01020C7086
:0307FC00D2842282
:03178600C28422F8
:031776001207FC5B
:03177900D28322F6
:03178900C28322F6
:1015B60043F30253F3FE43F40853F37F43F310530C
:0C15C600F3DF53F3F753F3FB43F3402231
:10145500E0FBA3E0FAA3E0F98D828C8312001CFF68
:10146500E4FE8FF5E5F430E7FB53F47FAEF553F476
:031475007FAF0640
:011478002251
:0B11A50090006CEBF0A3EAF0A3E9F06F
:1011B000EF4420FF121786121465E4FDFC90006FC7
:1011C000E0FFC3ED9F7480F86C98500D90006C1296
:0C11D00014550DBD00010C80E40207FC6A
:03166000E4F0FFB4
:10166300E4FE121786121465E4FF121465AE070236
:0216730007FC72
:03178C00021465DF
:0E1279009000A8EBF0A3EAF0A3E9F0A3EDF0DB
:10128700E4FDFC9000ABE0FFC3ED9F7480F86C9821
:0F129700500D9000A81214550DBD00010C80E4FD
:0112A6002225
:0E1041009000ACEBF0A3EAF0A3E9F0A3EDF011
:10104F00E4FDFC9000AFE0FFC3ED9F7480F86C9857
:10105F00501FE4FF1214659000ACE0FBA3E0FAA36D
:10106F00E0F98D828C83EF12005B0DBD00010C80C7
:01107F00D29E
:01108000224D
:10157C00900066121660EFF0E04402F07B017A00F6
:0D158C00796690006F7401F0E4FF0211A574
:101599009000B9121660EFF0E054FDF07B017A007B
:0D15A90079B990006F7401F0E4FF0211A504
:0212A700AD0791
:1012A900E4900066F07F06121663EFF0E054B8F0A0
:1012B900E0FFAE05EE25E0FEEF4EF07B017A007906
:0C12C9006690006F7401F07F060211A512
:02113500AD0704
:10113700E4900066F07F06121663EFF0E054D7F0F4
:10114700EDB40106E04408F0800BEDB4020790000F
:1011570066E04420F07B017A00796690006F7401A5
:06116700F07F060211A555
:10161E00900066EFF07B017A00796690006F74019E
:06162E00F07F050211A58A
:0B172F0090006F7405F07F100211A500
:100A6700900066EDF0E0D3942040037420F0EF147B
:100A7700602014602D14603A1460471460542405F4
:100A870070617B017A00796690006F7401F07F11C5
:100A9700804E7B017A00796690006F7401F07F12B7
:100AA700803E7B017A00796690006F7401F07F13B6
:100AB700802E7B017A00796690006F7401F07F14B5
:100AC700801E7B017A00796690006F7401F07F15B4
:100AD700800E7B017A00796690006F7401F07F16B3
:040AE7001211A52221
:0D05E800900066EBF0A3EAF0A3E9F0AD0788
:1005F500E4A3F07F02121663EFF0ED14603514608A
:100605005114606D147002C195147002C1B42405B3
:100615006002C1D1900066E0FBA3E0FAA3E0F99087
:10062500006F7405F07F0A1211A5900069E044017E
:10063500F0C1D1900066E0FBA3E0FAA3E0F99000D9
:100645006F7405F07F0B1211A5900069E04402F06C
:10065500807A900066E0FBA3E0FAA3E0F990006FD2
:100665007401F07F0C1211A5900069E04404F0803C
:100675005B900066E0FBA3E0FAA3E0F990006F74DD
:1006850001F07F0D1211A5900069E04408F0803C4F
:10069500900066E0FBA3E0FAA3E0F990006F740117
:1006A500F07F0E1211A5900069E04410F0801D90B6
:1006B5000066E0FBA3E0FAA3E0F990006F7401F097
:1006C5007F0F1211A5900069E04420F07B017A00AC
:0D06D500796990006F7401F07F020211A599
:02124700AD07F1
:101249007F021216639000BAEFF0E0FFAE05A80620
:101259007401088002C333D8FCF45F9000BAF07BB4
:10126900017A0079BA90006F7401F07F020211A52A
:02116D00AC07CD
:10116F00E4FF121663900066EFF0E054F3F0E0FF37
:10117F00AE05EE25E025E0FEAD04ED33333354F834
:10118F004EFEEF4EF07B017A00796690006F74018E
:06119F00F0E4FF0211A5BF
:1015ED00900066EFF0E024FEF07B017A00796690C2
:0A15FD00006F7401F07F030211A5D6
:0B173A001217867FE112178C0207FCDB
:0B1745001217867FE212178C0207FCCF
:0B1750007FFF1217861214650207FCD1
:0614300012173A121745E5
:10143600E490006AF0121750EFF0E04440F07B01B0
:0F1446007A00796A90006F7401F07F070211A598
:10152100E4900066F0121750EFF0E04420F07B01E8
:0F1531007A00796690006F7401F07F070211A5B0
:10154000E4900066F0121750EFF0E04410F07B01D9
:0F1550007A00796690006F7401F07F070211A591
:10140800121663EFFB7A00AF057E007401A8070887
:101418008005C333CE33CED8F9FFEE5AFEEF5B4ECC
:0814280060037F01227F002216
:020F4000AC07FC
:100F4200E49000BBF0121663EFF0EB6010E0FFA834
:100F5200057401088002C333D8FC4F80149000BB93
:100F6200E0FFAE05A8067401088002C333D8FCF482
:100F72005F9000BBF0AF047B017A0079BB90006FF9
:060F82007401F00211A54C
:1014C000E49000BCF01217867F6012178C7B017AC3
:1014D0000079BC7D011210411207FC9000BCE0FFB6
:0114E00022E9
:10149D00E4900066F0FF121663EFF0E04401F07B7C
:1014AD00017A00796690006F7401F0E4FF1211A5C6
:0314BD000217799A
:10150100E4900066F0FF121663EFF0E054FEF07B0A
:10151100017A00796690006F7401F0E4FF0211A571
:0212D500AD0763
:1012D7007F1D121663900066EFF0EDB40106E0443F
:1012E70004F08007900066E054FBF07B017A0079F8
:0C12F7006690006F7401F07F1D0211A5CD
:020D6D00AC07D1
:100D6F007F1C121663900066EFF0ECD394054002DF
:100D7F007C05ED6013900066E0FFA8047401088005
:100D8F0002C333D8FC4F8014900066E0FFAE04A876
:100D9F00067401088002C333D8FCF45F900066F03C
:100DAF007B017A00796690006F7401F07F1C02114D
:010DBF00A58E
:020DC000AC077E
:100DC200ECD3940540027C057F011216639000BDAE
:100DD200EFF0ED6010E0FFA8047401088002C33355
:100DE200D8FC4F80149000BDE0FFAE04A806740149
:100DF200088002C333D8FCF45F9000BDF07B017A17
:0D0E02000079BD90006F7401F0FF0211A592
:0213DF00AD0758
:1013E1007F01121663900066EFF0ED6005743FF027
:1013F1008005E4900066F07B017A00796690006FC9
:071401007401F0FF0211A5C8
:02130300AD0734
:101305007F1D121663900066EFF0ED6006E0440263
:10131500F08007900066E054FDF07B017A00796665
:0B13250090006F7401F07F1D0211A505
:02133000AD0707
:101332007F1D1216639000BEEFF0ED6006E04401DF
:10134200F080079000BEE054FEF07B017A0079BE87
:0B13520090006F7401F07F1D0211A5D8
:02135D00AD07DA
:10135F007F04121663900066EFF0E0540FF0E0FF89
:10136F00AE05EEC454F0FEEF4EF07B017A007966C5
:0B137F0090006F7401F07F040211A5C4
:02147900AD07BD
:10147B007F04121663900066EFF0E054F0F0E04D3D
:10148B00F07B017A00796690006F7401F07F0402A3
:02149B0011A599
:100AEB00900087EEF0A3EFF0A3EBF0A3EAF0A3E9FD
:010AFB00F00A
:100AFC00E490008EF0A3F090008CE0FEA3E0FFA346
:100B0C00E0FCA3E0FDC39FEC9E5057ED75F008A4EC
:100B1C00FD7E0074FFA805088005C333CE33CED804
:100B2C00F9FF900087E05EFEA3E05FA80508800552
:100B3C00CEC313CE13D8F9FF900089E0FBA3E0FAE3
:100B4C00A3E0F990008EE0FCA3E0F5828C83EF1219
:100B5C00005B90008FE004F0709D90008EE004F03C
:020B6C00809572
:010B6E002264
:0E07A4009000B0EBF0A3EAF0A3E9F0A3EDF0B3
:1007B2001217897FA0121786121465E4FDFC9000BF
:1007C200B3E0FFC3ED9F7480F86C98500D9000B0B9
:1007D2001214550DBD00010C80E41217767F017EC4
:1007E20000121393121789121750EF30E4091215F1
:0907F2004012173A7F01227F003A
:0107FB0022DB
:0510BF009000BFEDF000
:1010C4001217897FB0121786121465E4FDFC900094
:1010D400BFE0FFC3ED9F7480F86C98500E120003BC
:1010E400FF1214650DBD00010C80E31217767F0119
:0810F4007E001213930217891C
:10121200EFD3940540027F05EF44A8FF1217861210
:101222001465E4FDFC9000A7E0FFC3ED9F7480F815
:101232006C98500E120003FF1214650DBD00010CD4
:0512420080E30207FC3F
:051781007F0902166360
:0E16EF007F17121663EF20E0037F01227F00B9
:0116FD0022CA
:080CC5007B017A0079237D20F8
:0E0CCD00900066EBF0A3EAF0A3E9F0A3EDF0CF
:100CDB007F61121786121465E4FDFC900069E0FF3A
:100CEB00C3ED9F7480F86C98501FE4FF121465904D
:100CFB000066E0FBA3E0FAA3E0F98D828C83EF1290
:0F0D0B00005B0DBD00010C80D21207FC021436F4
:100B6F001217891215997F031212A7E4FF1211357C
:100B7F007F0212161EE4FDFF12116D7F051215ED97
:100B8F00121430121521121540121501E4FF121222
:100B9F00D5E4FF121303E4FF121330E4FF12135DC9
:100BAF007F03121479E49000C0F09000C0E0FFC3FF
:100BBF0094055029E4FD120A679000C0E0FF12125D
:100BCF00479000C0E0FFE4FD120D6D9000C0E0FF04
:100BDF007D01120DC09000C0E004F080CD021779A6
:0C170C0012157C12143012152102154039
:100EF500A2AF9200E4FFC2AF75C7AA75C755439F5D
:100F05000175AF04F5A7F5A6EFC3940C501FEF903C
:100F1500171893F5A675C7AA75C75543A401E5AE7D
:100F25001200490F740129F9E43AFA80DB75C7AA62
:0A0F350075C755539FFEA20092AF4E
:010F3F00228F
:101634008FAFECF5A7EDF5A675C7AA75C75543A4FA
:0516440001AEAEAF068F
:01164900227E
:10164A008FAFECF5A7EDF5A6AF038FAE75C7AA75F8
:06165A00C75543A4012264
:10168900A2AF9201C2AF75C7AA75C75543AA40A2B6
:031699000192AF0C
:01169C00222B
:100BEF00A2AF9205E4C2AF75C7AA75C755439F015F
:100BFF007D04FC7FC0121634EF54F064F070307532
:100C0F00C7AA75C75543A5047B0F7FE112164A7516
:100C1F00C7AA75C75553A5FBE59F20E6FB75C7AA65
:100C2F0075C755759F0075C7AA75C755439F8075C2
:100C3F00C7AA75C755539FFE75C7AA75C75543AA4F
:100C4F0007121689AFAA74FF60FA75C7AA75C75540
:070C5F0043AA80A20592AF39
:010C6600226B
:04176E008F828E8355
:03177200E493FFFE
:011775002251
:0B06E20090006DEBF0A3EAF0A3E9F03C
:1006ED00C201A3E4F0A3F0A3F0A3F0A3F0A3F0A341
:1006FD00F0A2AF9201C2AF90006DE0FBA3E0FAA3B0
:10070D00E0F94A600FA3EBF0A3EAF0A3E9F0900043
:10071D0063EB800E900063E0F9A3E0FAA3E0900094
:10072D0070C9F0A3EAF0A3E9F0ED4C600AAF0590B3
:10073D000013ECF0A3EFF09000737437F0A3E4F026
:10074D00A3F0A3F0900013E0FEA3E0FF900075E08E
:10075D00FCA3E0FDC39FEC9E5038900074E02DFF8C
:10076D00900073E03CFE12176E900070E0FBA3E06A
:10077D00FAA3E0F9EF120049900076E004F070065C
:10078D00900075E004F0900071E475F0011200D254
:06079D0080B2A20192AF40
:0107A3002233
:1010FC00AB07AA06ED75F080A42BFBE5F03AFAEBF2
:10110C00F5A6AE02EEF5A775AEFF75C7AA75C75565
:10111C00439F0175C7AA75C75543A50175AF2275C5
:08112C00C7AA75C75543A401D1
:011134002298
:1004D400C200900063E0F9A3E0FAA3E0900066C9CB
:1004E400F0A3EAF0A3E9F0900013E0FCA3E0FDAE72
:1004F400047807CEC313CE13D8F9F9E4900069F059
:10050400A3F0A3F0A3F0A2AF9200C2AFED4C70022F
:10051400A1E7099000697437F0A3E4F0A3F0A3F015
:10052400E9FF90006BE0FCA3E0FDC39FEC94005056
:100534001B900069E0FEA3E0FF1210FC90006CE049
:1005440004F070DC90006BE004F080D475C7AA75E9
:10055400C755439F0175C7AA75C75543A50175AF14
:1005640021E490006BF0A3F0900013E0FEA3E0FF01
:1005740090006BE0FCA3E0FDC39FEC9E5043900011
:1005840069E0FEA3E02DF5A6EEF5A7900066E0FB7A
:10059400A3E0FAA3E0F9120003F5AE75C7AA75C784
:1005A4005543A40112168990006CE004F070069083
:1005B400006BE004F0900067E475F0011200D28053
:1005C400A775C7AA75C75553A5FE75C7AA75C7559C
:1005D400539FFE7B007A007900E4FDFC1206E2A240
:0305E4000092AFD3
:0105E70022F1
:100FCD0053B1EF43B21053B1F743B20853B3FE43DD
:100FDD00B40153B1FE43B20143B10253B2FD43B369
:100FED000253B4FD53B3FB43B40453B3F743B408F6
:030FFD00C293227A
:100EA9001216EFEF6045120CC5900023E064FE7046
:100EB9003AA3E0900017F0900025E0900018F09018
:100EC9000026E0900019F0900027E090001AF090B9
:100ED9000028E090001BF0900029E090001CF090A1
:0C0EE900001674FEF01204D412138A22CA
:1003B600900004E0FEA3E0FF64324E7002D292C3C6
:1003C600EF9464EE9400500281BE1216EFEF6005C2
:1003D600120CC5C292900023E064FE705B90001779
:1003E600E0FF900024E06F704F900018E0FF90004F
:1003F60025E06F7043900019E0FF900026E06F70D3
:100406003790001AE0FF900027E06F702B90001BDA
:10041600E0FF900028E0B5071F90001CE0FF900069
:1004260029E0B50713A3E0B41E0EC292C29374FF6F
:10043600F0E4900002F0A3F0900023E064FE706305
:10044600900017E0FF900024E06F7057900018E0CE
:10045600FF900025E06F704B900019E0FF9000269A
:10046600E06F703F90001AE0FF900027E06F703356
:1004760090001BE0FF900028E0B5072790001CE0E5
:10048600FF900029E0B5071BA3E0B4AE16C292D2D6
:100496009390002374FFF0E4900004F0A3F0900022
:1004A600028012900003E02464F0900002E0340021
:1004B600F0E4900004F0A3F0C3900003E094B89039
:0E04C6000002E0940B4006C293E4F0A3F02283
:1011DC007B017A007966120EF5E4FF746C2FF582B0
:1011EC00E43400F583E0FE74662FF582E43400F5F8
:1011FC0083E06EFE74092FF582E43400F583EEF083
:05120C000FEFB406D64F
:0112110022BA
:10027200120FCD1210001211DC1215B61207FC1269
:1002820017797F057E0012139312178912170C1229
:10029200149D7F011213DFE4FF121303E4FF121215
:1002A200D5E4FDFF12116D7F031212A77F02121116
:1002B200357F0A12161E7F051215EDE4FDFF120DA1
:1002C2006DE4FD7F01120D6DE4FD7F02120D6DE400
:1002D200FD7F03120D6DE4FD7F04120D6DE4FD7FC1
:1002E20005120D6D7D20E4FF120A677F0412135D73
:1002F2007F0A1214797B017A00791E12172F7B0173
:100302007A00791EE4FF1205E81217797B017A0060
:1003120079157D087C001206E21204D412149D2085
:10032200916C121501D292E47F887E13FDFC90003D
:100332000FE0F8A3E0F9A3E0FAA3E0FBC312022462
:100342004024C29290001674FFF01204D412138A51
:10035200C29212138EC29212138EC29290000F1288
:1003620002410000000090000FE0FCA3E0FDA3E0CA
:10037200FEA3E02401FFE43EFEE43DFDE43CFC90EC
:10038200000F1202357F017E00121393612190004B
:1003920016E0B4FF05C292120EA91203B690000530
:1003A200E004F07006900004E004F07F017E001289
:0403B2001393611E22
:030000000209539F
:0C095300787FE4F6D8FD75812002099A37
:10000300BB010689828A83E0225002E722BBFE02FB
:09001300E32289828A83E493222E
:10001C00BB010CE58229F582E5833AF583E0225099
:10002C0006E92582F8E622BBFE06E92582F8E222E3
:0D003C00E58229F582E5833AF583E49322FD
:10004900BB010689828A83F0225002F722BBFE0196
:02005900F32290
:10005B00F8BB010DE58229F582E5833AF583E8F0DB
:10006B00225006E92582C8F622BBFE05E92582C887
:02007B00F2226F
:10007D00BC000BBE0029EF8DF084FFADF022E4CC67
:10008D00F875F008EF2FFFEE33FEEC33FCEE9DEC30
:10009D00984005FCEE9DFE0FD5F0E9E4CEFD22ED76
:1000AD00F8F5F0EE8420D21CFEADF075F008EF2FC0
:1000BD00FFED33FD4007985006D5F0F222C398FDB1
:0500CD000FD5F0EA224E
:1000D200C5F0F8A3E028F0C5F0F8E58215827002B9
:0600E2001583E038F02256
:1000E800BB010A89828A83F0E5F0A3F0225006F763
:0F00F80009A7F01922BBFE06F3E5F009F3192260
:10010700E88FF0A4CC8BF0A42CFCE98EF0A42CFC97
:100117008AF0EDA42CFCEA8EF0A4CDA8F08BF0A415
:100127002DCC3825F0FDE98FF0A42CCD35F0FCEB74
:100137008EF0A4FEA9F0EB8FF0A4CFC5F02ECD3939
:0F014700FEE43CFCEAA42DCE35F0FDE43CFC22A6
:1001560075F008758200EF2FFFEE33FECD33CDCC60
:1001660033CCC58233C5829BED9AEC99E5829840E3
:100176000CF582EE9BFEED9AFDEC99FC0FD5F0D6C0
:10018600E4CEFBE4CDFAE4CCF9A88222B800C1B9EA
:100196000059BA002DEC8BF084CFCECDFCE5F0CB28
:1001A600F97818EF2FFFEE33FEED33FDEC33FCEB61
:1001B60033FB10D703994004EB99FB0FD8E5E4F91C
:1001C600FA227818EF2FFFEE33FEED33FDEC33FC09
:1001D600C933C910D7059BE99A4007EC9BFCE99AFD
:1001E600F90FD8E0E4C9FAE4CCFB2275F010EF2F42
:1001F600FFEE33FEED33FDCC33CCC833C810D70742
:100206009BEC9AE899400AED9BFDEC9AFCE899F87C
:0E0216000FD5F0DAE4CDFBE4CCFAE4C8F9220F
:10022400EB9FF5F0EA9E42F0E99D42F0E89C45F030
:0102340022A7
:0C023500ECF0A3EDF0A3EEF0A3EFF0223C
:10024100A8828583F0D083D08212025812025812FC
:100251000258120258E473E493A3C583C5F0C58321
:10026100C8C582C8F0A3C583C5F0C583C8C582C807
:01027100226A
:10095F00020272E493A3F8E493A34003F68001F23A
:10096F0008DFF48029E493A3F85407240CC8C33399
:10097F00C4540F4420C8834004F456800146F6DF68
:10098F00E4800B0102040810204080901607E47EDB
:10099F00019360BCA3FF543F30E509541FFEE4935D
:1009AF00A360010ECF54C025E060A840B8E493A324
:1009BF00FAE493A3F8E493A3C8C582C8CAC583CA4F
:1009CF00F0A3C8C582C8CAC583CADFE9DEE780BE07
:01161D0000CC
:00000001FF
